{
  "contractName": "DecentralBank",
  "abi": [
    {
      "inputs": [
        {
          "internalType": "contract RWD",
          "name": "_rwd",
          "type": "address"
        },
        {
          "internalType": "contract Tether",
          "name": "_tether",
          "type": "address"
        }
      ],
      "payable": false,
      "stateMutability": "nonpayable",
      "type": "constructor"
    },
    {
      "constant": true,
      "inputs": [
        {
          "internalType": "address",
          "name": "",
          "type": "address"
        }
      ],
      "name": "hasStaked",
      "outputs": [
        {
          "internalType": "bool",
          "name": "",
          "type": "bool"
        }
      ],
      "payable": false,
      "stateMutability": "view",
      "type": "function"
    },
    {
      "constant": true,
      "inputs": [
        {
          "internalType": "address",
          "name": "",
          "type": "address"
        }
      ],
      "name": "isStaking",
      "outputs": [
        {
          "internalType": "bool",
          "name": "",
          "type": "bool"
        }
      ],
      "payable": false,
      "stateMutability": "view",
      "type": "function"
    },
    {
      "constant": true,
      "inputs": [],
      "name": "name",
      "outputs": [
        {
          "internalType": "string",
          "name": "",
          "type": "string"
        }
      ],
      "payable": false,
      "stateMutability": "view",
      "type": "function"
    },
    {
      "constant": true,
      "inputs": [],
      "name": "owner",
      "outputs": [
        {
          "internalType": "address",
          "name": "",
          "type": "address"
        }
      ],
      "payable": false,
      "stateMutability": "view",
      "type": "function"
    },
    {
      "constant": true,
      "inputs": [],
      "name": "rwd",
      "outputs": [
        {
          "internalType": "contract RWD",
          "name": "",
          "type": "address"
        }
      ],
      "payable": false,
      "stateMutability": "view",
      "type": "function"
    },
    {
      "constant": true,
      "inputs": [
        {
          "internalType": "uint256",
          "name": "",
          "type": "uint256"
        }
      ],
      "name": "stakers",
      "outputs": [
        {
          "internalType": "address",
          "name": "",
          "type": "address"
        }
      ],
      "payable": false,
      "stateMutability": "view",
      "type": "function"
    },
    {
      "constant": true,
      "inputs": [
        {
          "internalType": "address",
          "name": "",
          "type": "address"
        }
      ],
      "name": "stakingBalance",
      "outputs": [
        {
          "internalType": "uint256",
          "name": "",
          "type": "uint256"
        }
      ],
      "payable": false,
      "stateMutability": "view",
      "type": "function"
    },
    {
      "constant": true,
      "inputs": [],
      "name": "tether",
      "outputs": [
        {
          "internalType": "contract Tether",
          "name": "",
          "type": "address"
        }
      ],
      "payable": false,
      "stateMutability": "view",
      "type": "function"
    },
    {
      "constant": false,
      "inputs": [
        {
          "internalType": "uint256",
          "name": "_amount",
          "type": "uint256"
        }
      ],
      "name": "depositTokens",
      "outputs": [],
      "payable": false,
      "stateMutability": "nonpayable",
      "type": "function"
    },
    {
      "constant": false,
      "inputs": [],
      "name": "issueRewards",
      "outputs": [],
      "payable": false,
      "stateMutability": "nonpayable",
      "type": "function"
    }
  ],
  "bytecode": "0x60c0604052600e60808190526d446563656e7472616c2042616e6b60901b60a090815261002f91600191906100a7565b5034801561003c57600080fd5b5060405161078d38038061078d8339818101604052604081101561005f57600080fd5b508051602090910151600080546001600160a01b03199081163317909155600380546001600160a01b0394851690831617905560028054939092169216919091179055610142565b828054600181600116156101000203166002900490600052602060002090601f016020900481019282601f106100e857805160ff1916838001178555610115565b82800160010185558215610115579182015b828111156101155782518255916020019190600101906100fa565b50610121929150610125565b5090565b61013f91905b80821115610121576000815560010161012b565b90565b61063c806101516000396000f3fe608060405234801561001057600080fd5b506004361061009e5760003560e01c80638da5cb5b116100665780638da5cb5b146101be578063b0370e0c146101c6578063c93c8f34146101d0578063dd49756e146101f6578063fd5e6dd1146102135761009e565b806306fdde03146100a35780631a8972d31461012057806345bc78ab146101445780635efc071a1461017c5780636f49712b14610184575b600080fd5b6100ab610230565b6040805160208082528351818301528351919283929083019185019080838360005b838110156100e55781810151838201526020016100cd565b50505050905090810190601f1680156101125780820380516001836020036101000a031916815260200191505b509250505060405180910390f35b6101286102bd565b604080516001600160a01b039092168252519081900360200190f35b61016a6004803603602081101561015a57600080fd5b50356001600160a01b03166102cc565b60408051918252519081900360200190f35b6101286102de565b6101aa6004803603602081101561019a57600080fd5b50356001600160a01b03166102ed565b604080519115158252519081900360200190f35b610128610302565b6101ce610311565b005b6101aa600480360360208110156101e657600080fd5b50356001600160a01b0316610459565b6101ce6004803603602081101561020c57600080fd5b503561046e565b6101286004803603602081101561022957600080fd5b50356105e0565b60018054604080516020600284861615610100026000190190941693909304601f810184900484028201840190925281815292918301828280156102b55780601f1061028a576101008083540402835291602001916102b5565b820191906000526020600020905b81548152906001019060200180831161029857829003601f168201915b505050505081565b6003546001600160a01b031681565b60056020526000908152604090205481565b6002546001600160a01b031681565b60076020526000908152604090205460ff1681565b6000546001600160a01b031681565b6000546001600160a01b03163314610370576040805162461bcd60e51b815260206004820152601860248201527f63616c6c6572206d75737420626520746865206f776e65720000000000000000604482015290519081900360640190fd5b60005b6004548110156104565760006004828154811061038c57fe5b60009182526020808320909101546001600160a01b03168083526005909152604090912054909150801561044c576003546001600160a01b031663a9059cbb83600984046040518363ffffffff1660e01b815260040180836001600160a01b03166001600160a01b0316815260200182815260200192505050602060405180830381600087803b15801561041f57600080fd5b505af1158015610433573d6000803e3d6000fd5b505050506040513d602081101561044957600080fd5b50505b5050600101610373565b50565b60066020526000908152604090205460ff1681565b600081116104bb576040805162461bcd60e51b8152602060048201526015602482015274416d6f756e742063616e6e6f74206265207a65726f60581b604482015290519081900360640190fd5b600254604080516323b872dd60e01b81523360048201523060248201526044810184905290516001600160a01b03909216916323b872dd916064808201926020929091908290030181600087803b15801561051557600080fd5b505af1158015610529573d6000803e3d6000fd5b505050506040513d602081101561053f57600080fd5b5050336000908152600560209081526040808320805485019055600690915290205460ff166105ab57600480546001810182556000919091527f8a35acfbc15ff81a39ae7d344fd709f28e8600b4aa8c65c6b64bfe7fe36bd19b0180546001600160a01b031916331790555b503360009081526007602090815260408083208054600160ff1991821681179092556006909352922080549091169091179055565b600481815481106105ed57fe5b6000918252602090912001546001600160a01b031690508156fea265627a7a72315820d9d6b81bd45afd77b4f48e08422f45bbe7a5ec29632a49cbbf99840cadc4de1264736f6c63430005110032",
  "source": "// SPDX-License-Identifier: MIT\npragma solidity ^0.5.8;\n\nimport \"./RWD.sol\";\nimport \"./Tether.sol\";\n\ncontract DecentralBank {\n    address public owner;\n    string public name = \"Decentral Bank\";\n    Tether public tether;\n    RWD public rwd;\n\n    address[] public stakers;\n\n    mapping(address => uint256) public stakingBalance;\n    mapping(address => bool) public hasStaked;\n    mapping(address => bool) public isStaking;\n\n    constructor(RWD _rwd, Tether _tether) public {\n        owner = msg.sender;\n        rwd = _rwd;\n        tether = _tether;\n    }\n\n    // staking function\n    function depositTokens(uint256 _amount) public {\n        require(_amount > 0, \"Amount cannot be zero\");\n\n        // approve transfer\n        // tether.approve(msg.sender, _amount);\n        // transfer tether tokens to thiscontract address for staking\n        tether.transferFrom(msg.sender, address(this), _amount);\n\n        // update staking balance\n\n        stakingBalance[msg.sender] += _amount;\n\n        if (!hasStaked[msg.sender]) {\n            stakers.push(msg.sender);\n        }\n\n        isStaking[msg.sender] = true;\n        hasStaked[msg.sender] = true;\n    }\n\n    // issue rewards\n    function issueRewards() public {\n        // only owner can issue token\n        require(msg.sender == owner, \"caller must be the owner\");\n\n        for (uint256 i = 0; i < stakers.length; i++) {\n            address recipient = stakers[i];\n            uint256 balance = stakingBalance[recipient];\n            if (balance > 0) {\n                rwd.transfer(recipient, balance / 9); // /9 to create percentage incentive for staking\n            }\n        }\n    }\n}\n",
  "sourcePath": "/Users/nipek/Documents/bits/defi-staking-app/src/contracts/DecentralBank.sol",
  "compiler": {
    "name": "solc",
    "version": "0.5.17+commit.d19bba13.Emscripten.clang"
  },
  "schemaVersion": "3.4.3",
  "updatedAt": "2021-11-11T22:00:15.749Z",
  "devdoc": {
    "methods": {}
  },
  "userdoc": {
    "methods": {}
  }
}