{
  "contractName": "DecentralBank",
  "abi": [
    {
      "inputs": [
        {
          "internalType": "contract RWD",
          "name": "_rwd",
          "type": "address"
        },
        {
          "internalType": "contract Tether",
          "name": "_tether",
          "type": "address"
        }
      ],
      "payable": false,
      "stateMutability": "nonpayable",
      "type": "constructor"
    },
    {
      "constant": true,
      "inputs": [],
      "name": "name",
      "outputs": [
        {
          "internalType": "string",
          "name": "",
          "type": "string"
        }
      ],
      "payable": false,
      "stateMutability": "view",
      "type": "function"
    },
    {
      "constant": true,
      "inputs": [],
      "name": "owner",
      "outputs": [
        {
          "internalType": "address",
          "name": "",
          "type": "address"
        }
      ],
      "payable": false,
      "stateMutability": "view",
      "type": "function"
    },
    {
      "constant": true,
      "inputs": [],
      "name": "rwd",
      "outputs": [
        {
          "internalType": "contract RWD",
          "name": "",
          "type": "address"
        }
      ],
      "payable": false,
      "stateMutability": "view",
      "type": "function"
    },
    {
      "constant": true,
      "inputs": [],
      "name": "tether",
      "outputs": [
        {
          "internalType": "contract Tether",
          "name": "",
          "type": "address"
        }
      ],
      "payable": false,
      "stateMutability": "view",
      "type": "function"
    }
  ],
  "bytecode": "0x60c0604052600e60808190526d446563656e7472616c2042616e6b60901b60a090815261002f916001919061009c565b5034801561003c57600080fd5b506040516103373803806103378339818101604052604081101561005f57600080fd5b508051602090910151600380546001600160a01b039384166001600160a01b03199182161790915560028054939092169216919091179055610137565b828054600181600116156101000203166002900490600052602060002090601f016020900481019282601f106100dd57805160ff191683800117855561010a565b8280016001018555821561010a579182015b8281111561010a5782518255916020019190600101906100ef565b5061011692915061011a565b5090565b61013491905b808211156101165760008155600101610120565b90565b6101f1806101466000396000f3fe608060405234801561001057600080fd5b506004361061004c5760003560e01c806306fdde03146100515780631a8972d3146100ce5780635efc071a146100f25780638da5cb5b146100fa575b600080fd5b610059610102565b6040805160208082528351818301528351919283929083019185019080838360005b8381101561009357818101518382015260200161007b565b50505050905090810190601f1680156100c05780820380516001836020036101000a031916815260200191505b509250505060405180910390f35b6100d661018f565b604080516001600160a01b039092168252519081900360200190f35b6100d661019e565b6100d66101ad565b60018054604080516020600284861615610100026000190190941693909304601f810184900484028201840190925281815292918301828280156101875780601f1061015c57610100808354040283529160200191610187565b820191906000526020600020905b81548152906001019060200180831161016a57829003601f168201915b505050505081565b6003546001600160a01b031681565b6002546001600160a01b031681565b6000546001600160a01b03168156fea265627a7a72315820fea3c2f39d546e82f84e5be7ea40e26243e58e75a6e1106bf7cc560f925b719764736f6c63430005110032",
  "source": "// SPDX-License-Identifier: MIT\npragma solidity ^0.5.0;\n\nimport \"./RWD.sol\";\nimport \"./Tether.sol\";\n\ncontract DecentralBank {\n    address public owner;\n    string public name = \"Decentral Bank\";\n    Tether public tether;\n    RWD public rwd;\n\n    constructor(RWD _rwd, Tether _tether) public {\n        rwd = _rwd;\n        tether = _tether;\n    }\n}\n",
  "sourcePath": "/Users/nipek/Documents/bits/defi-staking-app-starter/defi-staking-app-starter/src/contracts/DecentralBank.sol",
  "compiler": {
    "name": "solc",
    "version": "0.5.17+commit.d19bba13.Emscripten.clang"
  },
  "schemaVersion": "3.4.3",
  "updatedAt": "2021-11-07T13:26:25.108Z",
  "networkType": "ethereum",
  "devdoc": {
    "methods": {}
  },
  "userdoc": {
    "methods": {}
  }
}